:020000040800F2
:1000000038070020890100088B0F0008C30E000884
:10001000890F00088F020008BF10000800000000D0
:100020000000000000000000000000008F0F00082A
:1000300091020008000000008D0F0008910F0008D9
:10004000A3010008A3010008A3010008A301000800
:10005000A3010008A3010008A3010008A3010008F0
:10006000A3010008A3010008A3010008A3010008E0
:10007000A3010008A3010008A3010008A3010008D0
:10008000A3010008A3010008A3010008A3010008C0
:10009000A3010008A3010008A3010008A3010008B0
:1000A000A3010008A3010008A3010008A3010008A0
:1000B000A3010008A3010008A3010008A301000890
:1000C000A3010008A3010008A3010008A301000880
:1000D000A3010008A3010008A3010008A301000870
:1000E000A3010008A3010008A301000800F002F822
:1000F00000F03AF80AA090E8000C82448344AAF188
:100100000107DA4501D100F02FF8AFF2090EBAE885
:100110000F0013F0010F18BFFB1A43F0010318473B
:1001200080110000A0110000103A24BF78C878C1E7
:10013000FAD8520724BF30C830C144BF04680C60ED
:10014000704700000023002400250026103A28BF35
:1001500078C1FBD8520728BF30C148BF0B60704739
:100160001FB51FBD10B510BD00F058F81146FFF7C0
:10017000F7FF01F05FF800F076F803B4FFF7F2FF45
:1001800003BC00F07DF8000009488047094800479B
:10019000FEE7FEE7FEE7FEE7FEE7FEE7FEE7FEE737
:1001A000FEE7FEE704480549054A064B7047000094
:1001B000E50F0008ED000008380100203807002096
:1001C00038030020380300204FF0000200B513462A
:1001D00094469646203922BFA0E80C50A0E80C5067
:1001E000B1F12001BFF4F7AF090728BFA0E80C5018
:1001F00048BF0CC05DF804EB890028BF40F8042B11
:1002000008BF704748BF20F8022B11F0804F18BF7D
:1002100000F8012B7047704770477047754600F033
:100220002BF8AE4605006946534620F00700854688
:1002300018B020B5FFF7B6FFBDE820404FF000062C
:100240004FF000074FF000084FF0000B21F00701BE
:10025000AC46ACE8C009ACE8C009ACE8C009ACE801
:10026000C0098D46704710B50446AFF300802046A4
:10027000BDE81040FFF781BF00487047D400002060
:1002800001491820ABBEFEE7260002007047FEE7DA
:100290007047000070B5044600F004F90546601C84
:1002A00002D004480078044400F0FCF8401BA0424F
:1002B000FAD370BD000000202DE9F84FDFF8B891A7
:1002C000002409F1040A0AF1040B23460F270BF15D
:1002D000040EC9E00125A5402A40AA427DD1674EFF
:1002E000D1F804C0ACEB0608B44532D014DCBCF144
:1002F000030F3AD009DCBCF1000F2AD0BCF1010F8A
:100300001CD0BCF1020F31D11DE0BCF1110F17D090
:10031000BCF1120F2AD119E0B8F5881F19D006DCFC
:10032000B8F5803F15D0B8F5801F1FD111E0B8F5A2
:10033000001F0ED0B8F5041F18D10AE0CB6815E0F5
:10034000CB681B1D12E0CB6808330FE0CB680C3381
:100350000CE08B682BB1012B4FF0080303D04561F3
:1003600004E0042302E0056100E00023FF2A01D835
:10037000064601E000F104064FEA840501D9A5F123
:100380002005D6F8008007FA05FC28EA0C0803FAD5
:1003900005F548EA0508C6F800804D68ED0062D50D
:1003A000374DAE6946F00106AE61AD6924F0030633
:1003B00005F001050095334D06EB050CDCF80850FF
:1003C000A607360F07FA06F825EA0805DFF8B88011
:1003D000404503D14FF0000817E044E0DFF8AC805F
:1003E000404502D14FF001080FE0DFF8A4804045FE
:1003F00002D14FF0020808E0DFF89880404502D1B2
:100400004FF0030801E04FF0040808FA06F848EA44
:100410000508CCF808804D68D9F80060ED034D461A
:1004200001D5164300E096432E604D68DAF800606F
:10043000AD03554601D5164300E096432E604D6846
:10044000DBF80060ED025D4601D5164300E09643FF
:100450002E604D68DEF80060AD02754601D516438A
:1004600000E096432E60641C0D682A46E5407FF448
:1004700031AFBDE8F88F000000040140000011100A
:10048000001002400000014000080140000C014043
:1004900000100140001401400AB1016170470904D5
:1004A000FBE7000001488068704700000000002062
:1004B00070B5040025D094F83D00002520B984F8DB
:1004C0003C50204600F0B8F8242084F83D00206815
:1004D000016821F0010101602068016841F40041D8
:1004E00001602068016821F40041016000F0F2F928
:1004F0004D4A6168914201D84C4900E04C4988421C
:1005000001D2012070BD4B492368B0FBF1F15E6858
:1005100026F03F060E435E606368934206D94FF4AF
:10052000967359434FF47A73B1FBF3F12368491C76
:100530001E6A26F03F06314319626168914210D865
:100540004900401EB0FBF1F2521CC2F30B02042A18
:1005500001D2042022E0B0FBF1F0401CC0F30B00FC
:100560001CE0A268F2B301EBC10303EB0116431ECA
:10057000B3FBF6F35B1C43F480431B0549D092B3F5
:1005800001EBC10202EB0111401EB0FBF1F0401C77
:10059000C0F30B0040F4804040F400402168CA6979
:1005A0004CF6FF739A431043C861D4E90710014326
:1005B0002068026822F0C00211430160D4E90301FF
:1005C00001432068826848F2FF339A4311438160F7
:1005D000D4E9050108432168CA6822F0FF021043EC
:1005E000C86001E00EE016E02068016841F00101FA
:1005F00001602564202084F83D00256384F83E5086
:10060000002070BD01EB4106431EB3FBF6F35B1CFB
:10061000B3E70120C2E701EB4101401EB0FBF1F05E
:10062000401CC0F30B00B7E7A086010080841E00C9
:1006300000093D0040420F0010B586B00021009136
:1006400001910291039100680F4988421AD10F4C21
:10065000A06940F00800A061A069694600F00800A8
:100660000490C020009012200190032003900848BD
:10067000FFF722FEE06940F40010E061E06900F459
:100680000010049006B010BD00540040001002405D
:10069000000C014002488168027811448160704773
:1006A00000000020074810B5016841F0100101600A
:1006B000032000F067F80F2000F006F800F024F89F
:1006C000002010BD0020024070B50D4D04464FF4CF
:1006D0007A712878B1FBF0F00A490968B1FBF0F0B3
:1006E00000F0D2FA48B9102C07D200222146501E41
:1006F00000F028F800206C6070BD012070BD000083
:10070000000000200C0000200C4808B5816941F071
:1007100001018161816901F001010091C16941F02C
:100720008051C161C06900F0805000900448416868
:1007300021F0E06141F00071416008BD001002400D
:1007400000000140F0B40E4B1B680C46C3F30223BB
:10075000C3F10705042D00D90425191D072901D26D
:10076000002300E0DB1E012606FA05F1491E2140A8
:1007700099409E40761E16403143F0BC00F0A0BC6C
:100780000CED00E0064900F0070208684FF6FF0391
:10079000184040EA0220034A1043086070470000F6
:1007A0000CED00E00000FA052DE9F0470F460500CA
:1007B00061D0434E306800F00700B84209D230687B
:1007C00020F0070038433060306800F00700B8427E
:1007D00051D128683B4C810712D5400703D560688A
:1007E00040F4E06060602878000703D5606840F45A
:1007F000605060606068A96820F0F00008436060A5
:100800002878C00728D06868012810D021680228FD
:1008100010D0890700292EDA616821F00301014315
:100820006160FFF73FFE804641F288390DE02168A4
:100830008903EFE78901EDE7FFF734FEA0EB08013C
:10084000494502D90320BDE8F0876068696800F077
:100850000C00B0EB810FEFD1306800F00700B84218
:100860000BD9306820F0070038433060306800F062
:100870000700B84201D00120E5E72878400705D5F8
:100880006068E96820F4E060084360602878000749
:1008900006D56068296920F4605040EAC1006060B4
:1008A00000F028F86168084AC1F30311515CC840A0
:1008B0000649086006480068FFF706FF0020C2E707
:1008C0000020024000100240881200080C000020A6
:1008D000040000200448054900684968044AC1F33F
:1008E0000221515CC84070470C00002000100240FB
:1008F0009812000813A185B00FC98DE80F0015A04C
:10090000154A00680490516801F00C00042804D0D6
:10091000082804D0114805B070471148FBE7C1F31F
:100920008343C9031DF8030009D5516804AAC1F324
:100930004041515C0A4A5043B0FBF1F0EBE70949F2
:100940004843E8E702030405060708090A0B0C0DF3
:100950000E0F1010010200000010024000127A0079
:100960008096980000093D002DE9F84F040070D0F2
:100970002078C04DC00749D06868C0F381000128C5
:1009800007D06868C0F38100022809D16868C003F5
:1009900006D52868800339D560680028E7D035E09F
:1009A0006068B0F5803F0BD010B1B0F5A02F11D02A
:1009B000286820F480302860286820F4802002E035
:1009C000286840F480302860606890B1FFF76AFDC5
:1009D00006460AE0286840F480202860F0E700BF5F
:1009E000FFF760FD801B642873D828688003F7D563
:1009F0000CE0FFF757FD064605E000BFFFF752FD8C
:100A0000801B6428F0D828688003F7D420789A4E99
:100A100080074FF001094FF0000839D5686810F0E1
:100A20000C0F07D06868C0F38100022809D16868FC
:100A3000C00306D42868800714D52069012808D18E
:100A400010E02069B0B1C6F80090FFF72BFD074613
:100A500005E00AE1FFF726FDC01B0228C4D828687C
:100A60008007F7D52868616920F0F80040EAC100E6
:100A700028600DE0C6F80080FFF714FD074604E08B
:100A8000FFF710FDC01B022823D828688007F7D481
:100A9000207800072CD57948A169D9B1C0F8009019
:100AA000FFF700FD074604E0FFF7FCFCC01B02282F
:100AB0000FD8686A8007F7D571484FF4FA5100687B
:100AC000B0FBF1F0009000BF0098411E0091FAD2F7
:100AD0000EE080E0C0F80080FFF7E4FC074604E089
:100AE000FFF7E0FCC01B022875D8686A8007F7D4BE
:100AF0002078400760D5E8690027C00008D4E8697D
:100B000040F08050E861E869012700F080500090D3
:100B10005C480168C90513D40168834641F48071BB
:100B20000160FFF7BFFC824606E000BFFFF7BAFC9A
:100B3000A0EB0A0064284ED8DBF80000C005F5D50C
:100B4000E06801280AD008B1052813D0286A20F0EF
:100B500001002862286A20F0040002E0286A40F0C0
:100B600001002862E06841F2883B98B1FFF79AFCE7
:100B700082460BE0286A40F004002862EEE700BFDE
:100B8000FFF790FCA0EB0A0159455AD8286A800764
:100B9000F6D50CE0FFF786FC824605E0FFF782FC05
:100BA000A0EB0A0159454CD8286A8007F6D41FB13A
:100BB000E86920F08050E861E06988B36968C1F3B2
:100BC0008101022944D00228C6F8608004D0FFF7D2
:100BD00069FC044638E034E0FFF764FC074604E0B3
:100BE000FFF760FCC01B02282BD828688001F7D4CF
:100BF000206AB0F5803F05D16868A16820F4003014
:100C000008436860D4E908010843696821F4741155
:100C100008436860C6F86090FFF744FC044606E0AD
:100C200025E000BFFFF73EFC001B022809D828681A
:100C30008001F7D51BE000BFFFF734FC001B022842
:100C400002D90320BDE8F88F28688001F4D40EE0B3
:100C50000128F7D06868226A00F48031914204D1FB
:100C6000616A00F47010884201D00120EAE7002098
:100C7000E8E70000001002400000424280044242C7
:100C80000C0000200070004010B5401EB0F1807FC5
:100C900001D3012010BD4FF0E02460610F216017E7
:100CA00000F00EFA0020A06107202061002010BD96
:100CB00070B590F83C20012A26D0012480F83C40F1
:100CC000022280F83D2003685A689D6822F0700671
:100CD0000A6832435A600D4B02689A4208D0B2F15A
:100CE000804F05D00A4B9A4202D00A4B9A4204D157
:100CF000496825F080031943916080F83D40002148
:100D000080F83C10084670BD022070BD002C0140E8
:100D1000000400400008004010B5040003D094F81F
:100D20003D0010B107E0012010BD002084F83C0018
:100D3000204600F01FF8022084F83D00211D2068A5
:100D400000F052F9012084F8460084F83E0084F84F
:100D50003F0084F8400084F8410084F8420084F8A1
:100D6000430084F8440084F8450084F83D000020E6
:100D700010BD000008B500680649884208D1064841
:100D8000C16941F00401C161C06900F00400009034
:100D900008BD0000000800400010024090F83D101F
:100DA000012901D001207047022180F83D10006820
:100DB0000B49884208D0B0F1804F05D009498842DC
:100DC00002D00949884204D1816801F0070106294F
:100DD00003D0016841F0010101600020704700006C
:100DE000002C0140000400400008004070B504469B
:100DF00090F83C00012817D0012584F83C500220CF
:100E000084F83D002068826822F0770222F47F4255
:100E100082600868502830D00DDC20284DD005DCD9
:100E200098B310283BD148E0022070BD302844D050
:100E3000402834D139E0602828D0702806D0B0F599
:100E4000805F2CD0B0F5005F29D10AE0CB68D1E9F2
:100E50000121206800F0FEF82068816841F07701E8
:100E600009E0CB68D1E90121206800F0F3F820689F
:100E7000816841F48041816011E0CA684968206856
:100E800000F0FAF85021206807E016E0CA684968C7
:100E9000206800F002F96021206800F0E5F884F88D
:100EA0003D50002084F83C0070BDCA684968206845
:100EB00000F0E2F840212068EFE722680146104682
:100EC000EBE7FEE770B586B0002418480094019463
:100ED00002940394816941F020018161816901F0EC
:100EE00020010491816941F004018161816901F06F
:100EF00004010491816941F00801816180690C4E0F
:100F000000F008004FF4FB7504900022294630469B
:100F1000FFF7C2FA01200095CDE9010402200390F9
:100F200069463046FFF7C8F906B070BD00100240B0
:100F30000008014010B586B00024124800940194C6
:100F40000294039404940E49059401605321C0E96E
:100F500001144FF6FE71C0E903148461FFF7DCFE53
:100F60004FF48050009069460648FFF73FFF049415
:100F700004A904480594FFF79BFE06B010BD0000CD
:100F80000008004064000020FEE7FEE7704770475D
:100F9000FFF780BB10B590B028216846FFF714F921
:100FA00014210AA8FFF710F901210804CDE9001067
:100FB0004200029202240491CDE907404FF4401010
:100FC00009906846FFF7D0FC0F20CDE90A04002005
:100FD0006102CDE90C010E9002210AA8FFF7E4FBA3
:100FE00010B010BD70470000F0B50268164B174CEA
:100FF000174D4FF08047984205D0B84203D0A04229
:1010000001D0A84203D122F070064A6832439842C8
:1010100005D0B84203D0A04201D0A84203D122F4A7
:101020004074CA6822434C6922F080022243026065
:101030008A68C2620A688262984201D109690163C2
:1010400001214161F0BD0000002C0140000400407E
:101050000008004010B5846842EA032224F47F446B
:101060000A432243826010BD826822F070020A4364
:1010700042F007018160704710B5036A046A24F0EA
:1010800001040462846924F0F00444EA021423F0A9
:101090000A020A438461026210BD10B5036A23F09C
:1010A000100303628369046A23F4704343EA023243
:1010B00024F0A00343EA01118261016210BDFEE742
:1010C0000907090E002804DB00F1E02080F8001475
:1010D000704700F00F0000F1E02080F8141D704709
:1010E0002DE9F04F37490346042008604FF002090C
:1010F000C1F8009010240C6020250D6040260E6081
:1011000080270F6000F060F8DFF8B880A8F10808C9
:10111000D8F8002042F00202C8F80020D8064FF4A8
:10112000801A08F1040201D5146001E0C2F800A0A1
:1011300098064FF4001B01D5156001E0C2F800B01D
:10114000580601D5166002E04FF4800010601806C2
:1011500001D5176002E04FF40000106000F034F891
:10116000C1F800900C600D600E600F6000F02CF86C
:10117000D8F800C04CF0020CC8F800C0D80701D065
:10118000146001E0C2F800A0980701D5156001E0E5
:10119000C2F800B0580701D5166002E04FF4800095
:1011A0001060180701D5176002E04FF400001060CE
:1011B00000F00AF8C1F800900C600D600E600F603E
:1011C000BDE8F08F140801404FF47A70401EFDD145
:1011D000704770B5064614460D46FA20FFF75AF8D8
:1011E0000220FFF77DFF3220FFF754F82E432643FD
:1011F00046F02000FFF774FF3220FFF74BF806207F
:10120000FFF76EFF3220FFF745F80E20FFF768FF6B
:101210003220FFF73FF80C20FFF762FF3220FFF784
:1012200039F80120FFF75CFFBDE870406420FFF74C
:1012300031B80000FFF736FAFFF7ACFEFFF742FEC9
:101240000F480E494FF4804201600E494160002171
:101250008160C0E9031241618161C1610162FFF7F0
:1012600027F9FFF767FE06485430FFF797FD002186
:1012700008220846FFF7ADFFFEE7000000540040DB
:1012800010000020A0860100000000000000000007
:10129000010203040607080900000000010203041C
:1012A000C012000800000020100000002801000803
:1012B000D012000810000020280700004401000898
:1012C0000100000010000000000000000024F400F5
:04000005080000ED02
:00000001FF
